:020000020000FC
:1000000013C441C041C041C041C041C041C093C0C0
:1000100093C093C093C093C093C093C093C092C049
:1000200092C092C092C07E7B2030342F31332F3269
:100030003031352031303A3130504D204C4544205C
:10004000576869706C61736820636F7374756D6550
:1000500020636F6E74726F6C206D6F64756C6520B9
:10006000413520636F70797269676874203230316E
:1000700030202D2032303135204D696B65204172A2
:100080006E6F73207D7E18951895189518951895A4
:100090000F930FB70F931F93CF93DF930FEF04BB13
:1000A0000BEC02BF6395603838F066277260539599
:1000B000543610F05527746000912A020A95009377
:1000C0002A0291F57068469509F440E144FF03C0A7
:1000D000D1E0C0E011C043FF03C0D0E0C8ED0CC0C8
:1000E00042FF03C0D0E0C0EB07C041FF03C0D0E037
:1000F000C8E802C0D0E0C0E672FF04C0092F0423A4
:1001000009F412C0042F00932A02D0932B02C0934B
:100110002C02A89618E20A910BBBD89AD8981A9587
:10012000D1F7D99AD998777FDF91CF911F910F910D
:100130000FBF0F9118951895189518951895189543
:100140001895189518951895189518950024112448
:100150002224332444245524662477248824992493
:10016000AA24BB24CC24DD24EE24FF24002711275D
:10017000222733274427552766277727882799275B
:10018000AA27BB27CC27DD27EE27FF27089500E00D
:100190000BBB18E2D89AD8981A95E1F7D99AD99852
:1001A00008950CE70BBB18E2D89AD8981A95E1F796
:1001B000D99AD99800912F020A3A08950000FECFEB
:1001C000F0DFFECFF894EDDF00270A95F1F7DFDFCF
:1001D00078940895F894E199FECFE498E598BFBB30
:1001E000AEBB0DBBE29AE19A119678940895E1991D
:1001F000FECF2FBB1EBBE09A0DB308950F931F9344
:100200002F933F931091340200913502312F202F0C
:10021000330F221F022720E0000F121F0093340229
:10022000109335023F912F911F910F9108950AEA83
:100230000093340205E5009335020895DF2FCE2F99
:100240003196088107FD03C006FD0FC018C00F716D
:1002500010910902010F0F3118F4006808830FC0D4
:100260000FE5088310E810830AC00F7110910A028D
:10027000011B1CF400E0088302C00064088321967F
:1002800031962A95F1F6089508E2F0912D02E09159
:100290002E0210E011930A95E1F718E0F0912D027B
:1002A000E0912E02D1E0C1E30A910F71022319F00F
:1002B00000810460008331961A95B1F718E0F0913F
:1002C0002D02E0912E023896D1E0C2E309910F7120
:1002D000022319F000810460008331961A95B1F76A
:1002E00010E1F0912D02E0912E02D1E0CCE30991D2
:1002F0000F71022319F000810860008331961A956E
:10030000B1F710E1F0912D02E0912E02D1E0CDE4A1
:1003100009910F71022319F0008100610083319669
:100320001A95B1F718E2F0912D02E0912E02D1E07A
:10033000CEE509910F71022319F00081006200835C
:1003400031961A95B1F718E2F0912D02E0912E0244
:10035000D1E0C8E809910F71022319F0008100640F
:10036000008331961A95B1F7786008959F7DD2E0A9
:10037000C0E309912FDF09912DDF09912BDF09914E
:1003800029DFA03F30F014970FEF24DF0ADF0000D1
:10039000FECF089501E000932D0200E000932E02AD
:1003A00020E172DF9061089500E000932D0208EDD6
:1003B00000932E0228E068DF9860089500E0009323
:1003C0002D0200EB00932E0224E05EDF946008957E
:1003D00000E000932D0208E800932E0222E054DF93
:1003E0009260089500E000932D0200E600932E0233
:1003F00021E04ADF91600895E20F08F4F395DF2FC2
:10040000CE2F21972A950A9102932A95E1F7089514
:10041000D1E0CCE300E11FE1199312500A95E1F716
:10042000D1E0CDE400E11FE1199312500A95E1F704
:100430000895109128021A951093280299F413E058
:1004400010932802F1E0ECE3008103950F71008323
:1004500020E1D2DFF1E0EDE4008103950F7100832C
:1004600020E1CADF0895020406080A0C0E102828AD
:10047000A39E99948E8A8682000002060A0E1419A1
:100480001E23286802060A0E14191E232868A8A72E
:10049000A6A5A4A3A2A1A09F9E9D00009A990000DA
:1004A000009594939291908F8E8D8C8B8AA88887DB
:1004B000C685848382811494139312925191109073
:1004C0000F8F0E8E0D8D0A8C088B008A0089008894
:1004D00002C70486068508840A830C82548114941A
:1004E0001393129251910C900B8F0A8E0D8D0C8CE0
:1004F0000D8B0E8A0F89118814C712860C8508840B
:100500000383028201810002000400060008000A41
:10051000000C000E00109512D454930091008F002F
:100520008C008900880086008400830082001414F7
:1005300012121010009E0A9E0894088A14131211B9
:10054000100F0D0C0B0A000000030405058A068A33
:1005500046850085009400000A141412100E0A0546
:100560000000050A05000A9414000A00940F000018
:100570009400140500050A0014681E140A05058578
:100580000F8A198F00940A99149E68680D8D0C8C3F
:100590000B8B0A8A098908880787068605850484E3
:1005A00003830282018141C142C243C344C445C5A1
:1005B00046C647C748C849C94ACA4BCB4CCC4DCDA3
:1005C0004ECE4FCF50D051D152D253D36868000095
:1005D000000000000000000000000000000000001B
:1005E000000000000000000000000000000000000B
:1005F000000000000000109126021A9510932602B8
:1006000099F415E010932602009127020093090245
:1006100004E000930A0229E0F1E0E8E20FDE009135
:10062000300107FD009328010895109124021A95C6
:100630001093240299F412E01093240200912502F1
:100640000093090202E000930A0229E0F1E0E2E3EC
:10065000F5DD00913A0107FD0093320108957064C1
:1006600002E011E026B323FF08C0513321F4F1E08A
:10067000ECE320E8208308E011E0009309021093E6
:100680000A0220E1F1E0ECE3D9DD02E011E026B35B
:1006900024FF08C0513321F4F1E0EDE420E8208389
:1006A00008E011E00093090210930A0220E1F1E052
:1006B000EDE4C4DD089500914C01002309F03061A0
:1006C00034FF2BC09BDD01E01EE500932102109357
:1006D0002202009117021091180200931F0210933A
:1006E00020020091150200931D0208E000932302EE
:1006F00010913502177033FD19E036FF18E03064B1
:1007000040D000911D020093150200911F0210912C
:1007100020020093170210931802089500915D01C2
:10072000002309F0306235FF2BC068DD01E018E8D6
:10073000009321021093220200911B0210911C02CF
:1007400000931F02109320020091190200931D02D2
:1007500000E10093230210913502177033FD19E078
:1007600037FF18E030680DD000911D020093190288
:1007700000911F021091200200931B0210931C0293
:100780000895F0911F02E091200200911D020832AD
:1007900021F000911D02003051F4F4E0E6E600E0A3
:1007A00000931D02103019F0B8961A95E9F7D09110
:1007B0002102C091220228E21591F0931F02E093DA
:1007C0002002012F0F730030C9F026B300912302DD
:1007D000022339F0009135020F7116FD0FE11F7BE6
:1007E00006C000913502037016FD0FE01F7B17FD58
:1007F0000AC029E2211B09931A95E9F700270993FA
:100800002A95E1F70BC01F7729E2211BA8960A93CE
:100810001A95E9F700270A932A95E1F700911D023E
:10082000039500931D0208950FE512E00DBF1EBF52
:100830000FE70ABB07EE07BBAADC26B308E00223DA
:1008400009F0BECCF4DC82DC05E00093260206E071
:100850000093270202E00093240204E000932502A3
:1008600008E20093150200E00093160208E20093EC
:10087000190200E000931A0204E0009317020093AB
:100880001B0206E60093180200931C02E091180276
:1008900003E00093280200E00093290200932F0256
:1008A000B0E0A0E06FE753E601E000932A02D1E058
:1008B000C8E21EED00E009931A95E9F718EC00E094
:1008C000D0E0C0E609931A95E9F7D1E0C0E300E86B
:1008D000088324970883D1E0C2E300E808830FEF80
:1008E00004BB0FEF02BF02E009BF00E805BB02E056
:1008F00003BF78943063306C90E470687460726009
:1009000072FD05D071FD17D077FD1DD0F9CF7B7F2B
:1009100000E17027D1E0CCE300E876FD0883D1E068
:10092000CDE400E876FD0883D1E0C2EB00E8D1E039
:10093000CCED00E808957D7F92DE5DDE76DE3860E6
:10094000BADEECDE08957F7796FF09C09F7B22DD3B
:1009500041E140932A024A9560E854E6789444FFC6
:1009600004C022DD2BDD34DD3DDD43FF089512DDC3
:1009700008952E2D06B303FF03C08395833001F441
:10098000843124F4D1E0C4E80FE10883089515FD13
:100990000E5F14FD0250003024F400E01F7E106250
:1009A00004C000320FE11F7D1061012B123009F0ED
:1009B00008951A950CF001C010E00A950CF001C0E2
:0409C00000E00895B6
:00000001FF
